{
	"contracts/Functions.sol": {
		"Functions": {
			"abi": [
				{
					"inputs": [
						{
							"internalType": "uint8[4]",
							"name": "arr",
							"type": "uint8[4]"
						}
					],
					"name": "f10",
					"outputs": [
						{
							"internalType": "uint8",
							"name": "",
							"type": "uint8"
						}
					],
					"stateMutability": "nonpayable",
					"type": "function"
				},
				{
					"inputs": [],
					"name": "f9",
					"outputs": [],
					"stateMutability": "nonpayable",
					"type": "function"
				},
				{
					"inputs": [
						{
							"internalType": "uint256",
							"name": "",
							"type": "uint256"
						}
					],
					"name": "sarr",
					"outputs": [
						{
							"internalType": "uint8",
							"name": "",
							"type": "uint8"
						}
					],
					"stateMutability": "view",
					"type": "function"
				}
			],
			"devdoc": {
				"custom:dev-run-script": "./scripts/deploy_with_ethers.ts",
				"details": "Store & retrieve value in a variable",
				"kind": "dev",
				"methods": {},
				"title": "Storage",
				"version": 1
			},
			"evm": {
				"assembly": "    /* \"contracts/Functions.sol\":199:507  contract Functions {... */\n  mstore(0x40, 0x80)\n    /* \"contracts/Functions.sol\":224:259  uint8[4] public sarr = [1, 2, 3, 4] */\n  mload(0x40)\n  dup1\n  0x80\n  add\n  0x40\n  mstore\n  dup1\n    /* \"contracts/Functions.sol\":248:249  1 */\n  0x01\n    /* \"contracts/Functions.sol\":224:259  uint8[4] public sarr = [1, 2, 3, 4] */\n  0xff\n  and\n  dup2\n  mstore\n  0x20\n  add\n    /* \"contracts/Functions.sol\":251:252  2 */\n  0x02\n    /* \"contracts/Functions.sol\":224:259  uint8[4] public sarr = [1, 2, 3, 4] */\n  0xff\n  and\n  dup2\n  mstore\n  0x20\n  add\n    /* \"contracts/Functions.sol\":254:255  3 */\n  0x03\n    /* \"contracts/Functions.sol\":224:259  uint8[4] public sarr = [1, 2, 3, 4] */\n  0xff\n  and\n  dup2\n  mstore\n  0x20\n  add\n    /* \"contracts/Functions.sol\":257:258  4 */\n  0x04\n    /* \"contracts/Functions.sol\":224:259  uint8[4] public sarr = [1, 2, 3, 4] */\n  0xff\n  and\n  dup2\n  mstore\n  pop\n  0x00\n  swap1\n  dup2\n  tag_1\n  swap2\n  swap1\n  tag_2\n  jump\t// in\ntag_1:\n  pop\n    /* \"contracts/Functions.sol\":199:507  contract Functions {... */\n  callvalue\n  dup1\n  iszero\n  tag_3\n  jumpi\n  revert(0x00, 0x00)\ntag_3:\n  pop\n  jump(tag_4)\n    /* \"#utility.yul\":7:187   */\ntag_5:\n    /* \"#utility.yul\":55:132   */\n  0x4e487b7100000000000000000000000000000000000000000000000000000000\n    /* \"#utility.yul\":52:53   */\n  0x00\n    /* \"#utility.yul\":45:133   */\n  mstore\n    /* \"#utility.yul\":152:156   */\n  0x41\n    /* \"#utility.yul\":149:150   */\n  0x04\n    /* \"#utility.yul\":142:157   */\n  mstore\n    /* \"#utility.yul\":176:180   */\n  0x24\n    /* \"#utility.yul\":173:174   */\n  0x00\n    /* \"#utility.yul\":166:181   */\n  revert\n    /* \"#utility.yul\":193:292   */\ntag_6:\n    /* \"#utility.yul\":253:259   */\n  0x00\n    /* \"#utility.yul\":281:285   */\n  0x04\n    /* \"#utility.yul\":271:285   */\n  swap1\n  pop\n    /* \"#utility.yul\":193:292   */\n  swap2\n  swap1\n  pop\n  jump\t// out\n    /* \"#utility.yul\":298:375   */\ntag_7:\n    /* \"#utility.yul\":335:342   */\n  0x00\n    /* \"#utility.yul\":364:369   */\n  dup2\n    /* \"#utility.yul\":353:369   */\n  swap1\n  pop\n    /* \"#utility.yul\":298:375   */\n  swap2\n  swap1\n  pop\n  jump\t// out\n    /* \"#utility.yul\":983:1184   */\ntag_10:\n    /* \"#utility.yul\":1060:1064   */\n  0x00\n    /* \"#utility.yul\":1083:1089   */\n  dup2\n    /* \"#utility.yul\":1075:1089   */\n  swap1\n  pop\n    /* \"#utility.yul\":1174:1176   */\n  0x20\n    /* \"#utility.yul\":1169:1170   */\n  0x01\n    /* \"#utility.yul\":1165:1167   */\n  0x20\n    /* \"#utility.yul\":1161:1171   */\n  sub\n    /* \"#utility.yul\":1153:1159   */\n  dup4\n    /* \"#utility.yul\":1149:1172   */\n  add\n    /* \"#utility.yul\":1145:1177   */\n  div\n    /* \"#utility.yul\":1137:1177   */\n  swap1\n  pop\n    /* \"#utility.yul\":983:1184   */\n  swap2\n  swap1\n  pop\n  jump\t// out\n    /* \"#utility.yul\":1189:1282   */\ntag_11:\n    /* \"#utility.yul\":1249:1253   */\n  0x00\n    /* \"#utility.yul\":1272:1275   */\n  dup2\n    /* \"#utility.yul\":1264:1275   */\n  swap1\n  pop\n    /* \"#utility.yul\":1189:1282   */\n  swap2\n  swap1\n  pop\n  jump\t// out\n    /* \"#utility.yul\":1288:1395   */\ntag_12:\n    /* \"#utility.yul\":1332:1340   */\n  0x00\n    /* \"#utility.yul\":1382:1387   */\n  dup3\n    /* \"#utility.yul\":1376:1380   */\n  dup3\n    /* \"#utility.yul\":1372:1388   */\n  shl\n    /* \"#utility.yul\":1351:1388   */\n  swap1\n  pop\n    /* \"#utility.yul\":1288:1395   */\n  swap3\n  swap2\n  pop\n  pop\n  jump\t// out\n    /* \"#utility.yul\":1401:1794   */\ntag_13:\n    /* \"#utility.yul\":1470:1476   */\n  0x00\n    /* \"#utility.yul\":1520:1521   */\n  0x08\n    /* \"#utility.yul\":1508:1518   */\n  dup4\n    /* \"#utility.yul\":1504:1522   */\n  mul\n    /* \"#utility.yul\":1543:1640   */\n  tag_49\n    /* \"#utility.yul\":1573:1639   */\n  0xffffffffffffffffffffffffffffffffffffffffffffffffffffffffffffffff\n    /* \"#utility.yul\":1562:1571   */\n  dup3\n    /* \"#utility.yul\":1543:1640   */\n  tag_12\n  jump\t// in\ntag_49:\n    /* \"#utility.yul\":1661:1700   */\n  tag_50\n    /* \"#utility.yul\":1691:1699   */\n  dup7\n    /* \"#utility.yul\":1680:1689   */\n  dup4\n    /* \"#utility.yul\":1661:1700   */\n  tag_12\n  jump\t// in\ntag_50:\n    /* \"#utility.yul\":1649:1700   */\n  swap6\n  pop\n    /* \"#utility.yul\":1733:1737   */\n  dup1\n    /* \"#utility.yul\":1729:1738   */\n  not\n    /* \"#utility.yul\":1722:1727   */\n  dup5\n    /* \"#utility.yul\":1718:1739   */\n  and\n    /* \"#utility.yul\":1709:1739   */\n  swap4\n  pop\n    /* \"#utility.yul\":1782:1786   */\n  dup1\n    /* \"#utility.yul\":1772:1780   */\n  dup7\n    /* \"#utility.yul\":1768:1787   */\n  and\n    /* \"#utility.yul\":1761:1766   */\n  dup5\n    /* \"#utility.yul\":1758:1788   */\n  or\n    /* \"#utility.yul\":1748:1788   */\n  swap3\n  pop\n    /* \"#utility.yul\":1477:1794   */\n  pop\n  pop\n    /* \"#utility.yul\":1401:1794   */\n  swap4\n  swap3\n  pop\n  pop\n  pop\n  jump\t// out\n    /* \"#utility.yul\":1800:1860   */\ntag_14:\n    /* \"#utility.yul\":1828:1831   */\n  0x00\n    /* \"#utility.yul\":1849:1854   */\n  dup2\n    /* \"#utility.yul\":1842:1854   */\n  swap1\n  pop\n    /* \"#utility.yul\":1800:1860   */\n  swap2\n  swap1\n  pop\n  jump\t// out\n    /* \"#utility.yul\":1866:2008   */\ntag_15:\n    /* \"#utility.yul\":1916:1925   */\n  0x00\n    /* \"#utility.yul\":1949:2002   */\n  tag_53\n    /* \"#utility.yul\":1967:2001   */\n  tag_54\n    /* \"#utility.yul\":1976:2000   */\n  tag_55\n    /* \"#utility.yul\":1994:1999   */\n  dup5\n    /* \"#utility.yul\":1976:2000   */\n  tag_7\n  jump\t// in\ntag_55:\n    /* \"#utility.yul\":1967:2001   */\n  tag_14\n  jump\t// in\ntag_54:\n    /* \"#utility.yul\":1949:2002   */\n  tag_7\n  jump\t// in\ntag_53:\n    /* \"#utility.yul\":1936:2002   */\n  swap1\n  pop\n    /* \"#utility.yul\":1866:2008   */\n  swap2\n  swap1\n  pop\n  jump\t// out\n    /* \"#utility.yul\":2014:2089   */\ntag_16:\n    /* \"#utility.yul\":2057:2060   */\n  0x00\n    /* \"#utility.yul\":2078:2083   */\n  dup2\n    /* \"#utility.yul\":2071:2083   */\n  swap1\n  pop\n    /* \"#utility.yul\":2014:2089   */\n  swap2\n  swap1\n  pop\n  jump\t// out\n    /* \"#utility.yul\":2095:2364   */\ntag_17:\n    /* \"#utility.yul\":2205:2244   */\n  tag_58\n    /* \"#utility.yul\":2236:2243   */\n  dup4\n    /* \"#utility.yul\":2205:2244   */\n  tag_15\n  jump\t// in\ntag_58:\n    /* \"#utility.yul\":2266:2357   */\n  tag_59\n    /* \"#utility.yul\":2315:2356   */\n  tag_60\n    /* \"#utility.yul\":2339:2355   */\n  dup3\n    /* \"#utility.yul\":2315:2356   */\n  tag_16\n  jump\t// in\ntag_60:\n    /* \"#utility.yul\":2307:2313   */\n  dup5\n    /* \"#utility.yul\":2300:2304   */\n  dup5\n    /* \"#utility.yul\":2294:2305   */\n  sload\n    /* \"#utility.yul\":2266:2357   */\n  tag_13\n  jump\t// in\ntag_59:\n    /* \"#utility.yul\":2260:2264   */\n  dup3\n    /* \"#utility.yul\":2253:2358   */\n  sstore\n    /* \"#utility.yul\":2171:2364   */\n  pop\n    /* \"#utility.yul\":2095:2364   */\n  pop\n  pop\n  pop\n  jump\t// out\n    /* \"#utility.yul\":2370:2443   */\ntag_18:\n    /* \"#utility.yul\":2415:2418   */\n  0x00\n    /* \"#utility.yul\":2436:2437   */\n  0x00\n    /* \"#utility.yul\":2429:2437   */\n  swap1\n  pop\n    /* \"#utility.yul\":2370:2443   */\n  swap1\n  jump\t// out\n    /* \"#utility.yul\":2449:2638   */\ntag_19:\n    /* \"#utility.yul\":2526:2558   */\n  tag_63\n  tag_18\n  jump\t// in\ntag_63:\n    /* \"#utility.yul\":2567:2632   */\n  tag_64\n    /* \"#utility.yul\":2625:2631   */\n  dup2\n    /* \"#utility.yul\":2617:2623   */\n  dup5\n    /* \"#utility.yul\":2611:2615   */\n  dup5\n    /* \"#utility.yul\":2567:2632   */\n  tag_17\n  jump\t// in\ntag_64:\n    /* \"#utility.yul\":2502:2638   */\n  pop\n    /* \"#utility.yul\":2449:2638   */\n  pop\n  pop\n  jump\t// out\n    /* \"#utility.yul\":2644:2857   */\ntag_20:\n    /* \"#utility.yul\":2728:2729   */\n  0x00\n    /* \"#utility.yul\":2713:2851   */\ntag_66:\n    /* \"#utility.yul\":2738:2747   */\n  dup3\n    /* \"#utility.yul\":2735:2736   */\n  dup2\n    /* \"#utility.yul\":2732:2748   */\n  lt\n    /* \"#utility.yul\":2713:2851   */\n  iszero\n  tag_68\n  jumpi\n    /* \"#utility.yul\":2790:2841   */\n  tag_69\n    /* \"#utility.yul\":2839:2840   */\n  0x00\n    /* \"#utility.yul\":2835:2836   */\n  dup3\n    /* \"#utility.yul\":2824:2833   */\n  dup5\n    /* \"#utility.yul\":2820:2837   */\n  add\n    /* \"#utility.yul\":2790:2841   */\n  tag_19\n  jump\t// in\ntag_69:\n    /* \"#utility.yul\":2763:2764   */\n  0x01\n    /* \"#utility.yul\":2760:2761   */\n  dup2\n    /* \"#utility.yul\":2756:2765   */\n  add\n    /* \"#utility.yul\":2751:2765   */\n  swap1\n  pop\n    /* \"#utility.yul\":2713:2851   */\n  jump(tag_66)\ntag_68:\n    /* \"#utility.yul\":2717:2731   */\n  pop\n    /* \"#utility.yul\":2644:2857   */\n  pop\n  pop\n  jump\t// out\n    /* \"#utility.yul\":2863:2980   */\ntag_21:\n    /* \"#utility.yul\":2917:2925   */\n  0x00\n    /* \"#utility.yul\":2967:2972   */\n  dup3\n    /* \"#utility.yul\":2961:2965   */\n  dup3\n    /* \"#utility.yul\":2957:2973   */\n  shr\n    /* \"#utility.yul\":2936:2973   */\n  swap1\n  pop\n    /* \"#utility.yul\":2863:2980   */\n  swap3\n  swap2\n  pop\n  pop\n  jump\t// out\n    /* \"#utility.yul\":2986:3230   */\ntag_22:\n    /* \"#utility.yul\":3058:3179   */\n  tag_72\n    /* \"#utility.yul\":3112:3178   */\n  0xffffffffffffffffffffffffffffffffffffffffffffffffffffffffffffffff\n    /* \"#utility.yul\":3102:3108   */\n  dup4\n    /* \"#utility.yul\":3098:3100   */\n  0x20\n    /* \"#utility.yul\":3094:3109   */\n  sub\n    /* \"#utility.yul\":3091:3092   */\n  0x08\n    /* \"#utility.yul\":3087:3110   */\n  mul\n    /* \"#utility.yul\":3058:3179   */\n  tag_21\n  jump\t// in\ntag_72:\n    /* \"#utility.yul\":3217:3221   */\n  dup2\n    /* \"#utility.yul\":3211:3222   */\n  sload\n    /* \"#utility.yul\":3205:3209   */\n  dup2\n    /* \"#utility.yul\":3201:3223   */\n  and\n    /* \"#utility.yul\":3195:3199   */\n  dup3\n    /* \"#utility.yul\":3188:3224   */\n  sstore\n    /* \"#utility.yul\":3036:3230   */\n  pop\n    /* \"#utility.yul\":2986:3230   */\n  pop\n  pop\n  jump\t// out\n    /* \"#utility.yul\":3236:4185   */\ntag_23:\n    /* \"#utility.yul\":3352:3355   */\n  dup2\n    /* \"#utility.yul\":3340:3350   */\n  dup4\n    /* \"#utility.yul\":3337:3356   */\n  lt\n    /* \"#utility.yul\":3334:4178   */\n  iszero\n  tag_74\n  jumpi\n    /* \"#utility.yul\":3443:3504   */\n  tag_75\n    /* \"#utility.yul\":3500:3503   */\n  dup3\n    /* \"#utility.yul\":3443:3504   */\n  tag_10\n  jump\t// in\ntag_75:\n    /* \"#utility.yul\":3537:3605   */\n  tag_76\n    /* \"#utility.yul\":3594:3604   */\n  dup5\n    /* \"#utility.yul\":3537:3605   */\n  tag_10\n  jump\t// in\ntag_76:\n    /* \"#utility.yul\":3640:3689   */\n  tag_77\n    /* \"#utility.yul\":3683:3688   */\n  dup4\n    /* \"#utility.yul\":3640:3689   */\n  tag_11\n  jump\t// in\ntag_77:\n    /* \"#utility.yul\":3741:3753   */\n  dup2\n    /* \"#utility.yul\":3725:3739   */\n  dup2\n    /* \"#utility.yul\":3721:3754   */\n  add\n    /* \"#utility.yul\":3990:3991   */\n  0x01\n    /* \"#utility.yul\":3985:3987   */\n  0x20\n    /* \"#utility.yul\":3973:3983   */\n  dup9\n    /* \"#utility.yul\":3969:3988   */\n  mod\n    /* \"#utility.yul\":3965:3992   */\n  mul\n    /* \"#utility.yul\":4019:4020   */\n  0x00\n    /* \"#utility.yul\":4011:4017   */\n  dup2\n    /* \"#utility.yul\":4008:4021   */\n  gt\n    /* \"#utility.yul\":4005:4081   */\n  iszero\n  tag_78\n  jumpi\n    /* \"#utility.yul\":4024:4079   */\n  tag_79\n    /* \"#utility.yul\":4072:4078   */\n  dup2\n    /* \"#utility.yul\":4068:4069   */\n  0x01\n    /* \"#utility.yul\":4055:4066   */\n  dup5\n    /* \"#utility.yul\":4051:4070   */\n  sub\n    /* \"#utility.yul\":4024:4079   */\n  tag_22\n  jump\t// in\ntag_79:\n    /* \"#utility.yul\":4005:4081   */\ntag_78:\n    /* \"#utility.yul\":4095:4168   */\n  tag_80\n    /* \"#utility.yul\":4154:4166   */\n  dup5\n    /* \"#utility.yul\":4140:4152   */\n  dup7\n    /* \"#utility.yul\":4136:4167   */\n  sub\n    /* \"#utility.yul\":4123:4134   */\n  dup4\n    /* \"#utility.yul\":4095:4168   */\n  tag_20\n  jump\t// in\ntag_80:\n    /* \"#utility.yul\":3357:4178   */\n  pop\n  pop\n  pop\n  pop\n  pop\n    /* \"#utility.yul\":3334:4178   */\ntag_74:\n    /* \"#utility.yul\":3236:4185   */\n  pop\n  pop\n  pop\n  jump\t// out\n    /* \"#utility.yul\":4191:4508   */\ntag_24:\n    /* \"#utility.yul\":4280:4300   */\n  0x010000000000000000\n    /* \"#utility.yul\":4272:4278   */\n  dup3\n    /* \"#utility.yul\":4269:4301   */\n  gt\n    /* \"#utility.yul\":4266:4344   */\n  iszero\n  tag_82\n  jumpi\n    /* \"#utility.yul\":4316:4334   */\n  tag_83\n  tag_5\n  jump\t// in\ntag_83:\n    /* \"#utility.yul\":4266:4344   */\ntag_82:\n    /* \"#utility.yul\":4368:4415   */\n  tag_84\n    /* \"#utility.yul\":4409:4414   */\n  dup2\n    /* \"#utility.yul\":4368:4415   */\n  tag_6\n  jump\t// in\ntag_84:\n    /* \"#utility.yul\":4425:4501   */\n  tag_85\n    /* \"#utility.yul\":4494:4500   */\n  dup4\n    /* \"#utility.yul\":4486:4492   */\n  dup3\n    /* \"#utility.yul\":4479:4484   */\n  dup5\n    /* \"#utility.yul\":4425:4501   */\n  tag_23\n  jump\t// in\ntag_85:\n    /* \"#utility.yul\":4256:4508   */\n  pop\n    /* \"#utility.yul\":4191:4508   */\n  pop\n  pop\n  jump\t// out\n    /* \"#utility.yul\":4513:4615   */\ntag_25:\n    /* \"#utility.yul\":4576:4582   */\n  0x00\n    /* \"#utility.yul\":4604:4608   */\n  0x04\n    /* \"#utility.yul\":4594:4608   */\n  swap1\n  pop\n    /* \"#utility.yul\":4513:4615   */\n  swap2\n  swap1\n  pop\n  jump\t// out\n    /* \"#utility.yul\":4621:4707   */\ntag_26:\n    /* \"#utility.yul\":4656:4663   */\n  0x00\n    /* \"#utility.yul\":4696:4700   */\n  0xff\n    /* \"#utility.yul\":4689:4694   */\n  dup3\n    /* \"#utility.yul\":4685:4701   */\n  and\n    /* \"#utility.yul\":4674:4701   */\n  swap1\n  pop\n    /* \"#utility.yul\":4621:4707   */\n  swap2\n  swap1\n  pop\n  jump\t// out\n    /* \"#utility.yul\":4713:4863   */\ntag_27:\n    /* \"#utility.yul\":4754:4765   */\n  0x00\n    /* \"#utility.yul\":4790:4817   */\n  tag_89\n    /* \"#utility.yul\":4812:4815   */\n  dup3\n    /* \"#utility.yul\":4806:4816   */\n  mload\n    /* \"#utility.yul\":4790:4817   */\n  tag_26\n  jump\t// in\ntag_89:\n    /* \"#utility.yul\":4851:4856   */\n  dup1\n    /* \"#utility.yul\":4827:4856   */\n  swap2\n  pop\n    /* \"#utility.yul\":4766:4863   */\n  pop\n    /* \"#utility.yul\":4713:4863   */\n  swap2\n  swap1\n  pop\n  jump\t// out\n    /* \"#utility.yul\":4869:4965   */\ntag_28:\n    /* \"#utility.yul\":4932:4936   */\n  0x00\n    /* \"#utility.yul\":4955:4958   */\n  dup2\n    /* \"#utility.yul\":4947:4958   */\n  swap1\n  pop\n    /* \"#utility.yul\":4869:4965   */\n  swap2\n  swap1\n  pop\n  jump\t// out\n    /* \"#utility.yul\":5273:5602   */\ntag_31:\n    /* \"#utility.yul\":5341:5347   */\n  0x00\n    /* \"#utility.yul\":5391:5392   */\n  0x08\n    /* \"#utility.yul\":5379:5389   */\n  dup4\n    /* \"#utility.yul\":5375:5393   */\n  mul\n    /* \"#utility.yul\":5414:5448   */\n  tag_96\n    /* \"#utility.yul\":5444:5447   */\n  0xff\n    /* \"#utility.yul\":5433:5442   */\n  dup3\n    /* \"#utility.yul\":5414:5448   */\n  tag_12\n  jump\t// in\ntag_96:\n    /* \"#utility.yul\":5469:5508   */\n  tag_97\n    /* \"#utility.yul\":5499:5507   */\n  dup7\n    /* \"#utility.yul\":5488:5497   */\n  dup4\n    /* \"#utility.yul\":5469:5508   */\n  tag_12\n  jump\t// in\ntag_97:\n    /* \"#utility.yul\":5457:5508   */\n  swap6\n  pop\n    /* \"#utility.yul\":5541:5545   */\n  dup1\n    /* \"#utility.yul\":5537:5546   */\n  not\n    /* \"#utility.yul\":5530:5535   */\n  dup5\n    /* \"#utility.yul\":5526:5547   */\n  and\n    /* \"#utility.yul\":5517:5547   */\n  swap4\n  pop\n    /* \"#utility.yul\":5590:5594   */\n  dup1\n    /* \"#utility.yul\":5580:5588   */\n  dup7\n    /* \"#utility.yul\":5576:5595   */\n  and\n    /* \"#utility.yul\":5569:5574   */\n  dup5\n    /* \"#utility.yul\":5566:5596   */\n  or\n    /* \"#utility.yul\":5556:5596   */\n  swap3\n  pop\n    /* \"#utility.yul\":5348:5602   */\n  pop\n  pop\n    /* \"#utility.yul\":5273:5602   */\n  swap4\n  swap3\n  pop\n  pop\n  pop\n  jump\t// out\n    /* \"#utility.yul\":5748:5821   */\ntag_33:\n    /* \"#utility.yul\":5789:5792   */\n  0x00\n    /* \"#utility.yul\":5810:5815   */\n  dup2\n    /* \"#utility.yul\":5803:5815   */\n  swap1\n  pop\n    /* \"#utility.yul\":5748:5821   */\n  swap2\n  swap1\n  pop\n  jump\t// out\n    /* \"#utility.yul\":5827:7453   */\ntag_2:\n    /* \"#utility.yul\":5960:6008   */\n  tag_104\n    /* \"#utility.yul\":6004:6007   */\n  dup3\n    /* \"#utility.yul\":5960:6008   */\n  tag_25\n  jump\t// in\ntag_104:\n    /* \"#utility.yul\":6073:6091   */\n  0xffffffffffffffff\n    /* \"#utility.yul\":6065:6071   */\n  dup2\n    /* \"#utility.yul\":6062:6092   */\n  gt\n    /* \"#utility.yul\":6059:6115   */\n  iszero\n  tag_105\n  jumpi\n    /* \"#utility.yul\":6095:6113   */\n  tag_106\n  tag_5\n  jump\t// in\ntag_106:\n    /* \"#utility.yul\":6059:6115   */\ntag_105:\n    /* \"#utility.yul\":6124:6177   */\n  tag_107\n    /* \"#utility.yul\":6170:6176   */\n  dup2\n    /* \"#utility.yul\":6165:6168   */\n  dup4\n    /* \"#utility.yul\":6124:6177   */\n  tag_24\n  jump\t// in\ntag_107:\n    /* \"#utility.yul\":6201:6251   */\n  tag_108\n    /* \"#utility.yul\":6247:6250   */\n  dup4\n    /* \"#utility.yul\":6201:6251   */\n  tag_28\n  jump\t// in\ntag_108:\n    /* \"#utility.yul\":6275:6322   */\n  tag_109\n    /* \"#utility.yul\":6318:6321   */\n  dup4\n    /* \"#utility.yul\":6275:6322   */\n  tag_11\n  jump\t// in\ntag_109:\n    /* \"#utility.yul\":6361:6363   */\n  0x20\n    /* \"#utility.yul\":6353:6359   */\n  dup4\n    /* \"#utility.yul\":6349:6364   */\n  div\n    /* \"#utility.yul\":6389:6390   */\n  0x00\n    /* \"#utility.yul\":6374:6907   */\ntag_110:\n    /* \"#utility.yul\":6399:6408   */\n  dup2\n    /* \"#utility.yul\":6396:6397   */\n  dup2\n    /* \"#utility.yul\":6393:6409   */\n  lt\n    /* \"#utility.yul\":6374:6907   */\n  iszero\n  tag_112\n  jumpi\n    /* \"#utility.yul\":6463:6464   */\n  0x00\n    /* \"#utility.yul\":6493:6494   */\n  0x00\n    /* \"#utility.yul\":6478:6846   */\ntag_113:\n    /* \"#utility.yul\":6503:6505   */\n  0x20\n    /* \"#utility.yul\":6500:6501   */\n  dup2\n    /* \"#utility.yul\":6497:6506   */\n  lt\n    /* \"#utility.yul\":6478:6846   */\n  iszero\n  tag_115\n  jumpi\n    /* \"#utility.yul\":6576:6607   */\n  tag_116\n    /* \"#utility.yul\":6600:6606   */\n  dup7\n    /* \"#utility.yul\":6576:6607   */\n  tag_27\n  jump\t// in\ntag_116:\n    /* \"#utility.yul\":6642:6676   */\n  tag_117\n    /* \"#utility.yul\":6664:6675   */\n  dup2\n    /* \"#utility.yul\":6642:6676   */\n  tag_33\n  jump\t// in\ntag_117:\n    /* \"#utility.yul\":6726:6788   */\n  tag_118\n    /* \"#utility.yul\":6778:6787   */\n  dup2\n    /* \"#utility.yul\":6774:6775   */\n  dup5\n    /* \"#utility.yul\":6771:6772   */\n  0x01\n    /* \"#utility.yul\":6767:6776   */\n  mul\n    /* \"#utility.yul\":6753:6765   */\n  dup7\n    /* \"#utility.yul\":6726:6788   */\n  tag_31\n  jump\t// in\ntag_118:\n    /* \"#utility.yul\":6693:6788   */\n  swap4\n  pop\n    /* \"#utility.yul\":6828:6830   */\n  0x20\n    /* \"#utility.yul\":6820:6826   */\n  dup9\n    /* \"#utility.yul\":6816:6831   */\n  add\n    /* \"#utility.yul\":6806:6831   */\n  swap8\n  pop\n    /* \"#utility.yul\":6538:6846   */\n  pop\n  pop\n    /* \"#utility.yul\":6521:6522   */\n  0x01\n    /* \"#utility.yul\":6518:6519   */\n  dup2\n    /* \"#utility.yul\":6514:6523   */\n  add\n    /* \"#utility.yul\":6509:6523   */\n  swap1\n  pop\n    /* \"#utility.yul\":6478:6846   */\n  jump(tag_113)\ntag_115:\n    /* \"#utility.yul\":6482:6496   */\n  pop\n    /* \"#utility.yul\":6884:6896   */\n  dup1\n    /* \"#utility.yul\":6880:6881   */\n  dup3\n    /* \"#utility.yul\":6871:6878   */\n  dup6\n    /* \"#utility.yul\":6867:6882   */\n  add\n    /* \"#utility.yul\":6860:6897   */\n  sstore\n    /* \"#utility.yul\":6429:6907   */\n  pop\n    /* \"#utility.yul\":6424:6425   */\n  0x01\n    /* \"#utility.yul\":6421:6422   */\n  dup2\n    /* \"#utility.yul\":6417:6426   */\n  add\n    /* \"#utility.yul\":6412:6426   */\n  swap1\n  pop\n    /* \"#utility.yul\":6374:6907   */\n  jump(tag_110)\ntag_112:\n    /* \"#utility.yul\":6378:6392   */\n  pop\n    /* \"#utility.yul\":6957:6959   */\n  0x20\n    /* \"#utility.yul\":6946:6955   */\n  dup2\n    /* \"#utility.yul\":6942:6960   */\n  mul\n    /* \"#utility.yul\":6934:6940   */\n  dup5\n    /* \"#utility.yul\":6930:6961   */\n  sub\n    /* \"#utility.yul\":6983:6984   */\n  0x00\n    /* \"#utility.yul\":6976:6981   */\n  dup2\n    /* \"#utility.yul\":6973:6985   */\n  gt\n    /* \"#utility.yul\":6970:7446   */\n  iszero\n  tag_119\n  jumpi\n    /* \"#utility.yul\":7020:7021   */\n  0x00\n    /* \"#utility.yul\":7050:7051   */\n  0x00\n    /* \"#utility.yul\":7035:7377   */\ntag_120:\n    /* \"#utility.yul\":7060:7065   */\n  dup3\n    /* \"#utility.yul\":7057:7058   */\n  dup2\n    /* \"#utility.yul\":7054:7066   */\n  lt\n    /* \"#utility.yul\":7035:7377   */\n  iszero\n  tag_122\n  jumpi\n    /* \"#utility.yul\":7124:7155   */\n  tag_123\n    /* \"#utility.yul\":7148:7154   */\n  dup7\n    /* \"#utility.yul\":7124:7155   */\n  tag_27\n  jump\t// in\ntag_123:\n    /* \"#utility.yul\":7190:7224   */\n  tag_124\n    /* \"#utility.yul\":7212:7223   */\n  dup2\n    /* \"#utility.yul\":7190:7224   */\n  tag_33\n  jump\t// in\ntag_124:\n    /* \"#utility.yul\":7257:7319   */\n  tag_125\n    /* \"#utility.yul\":7309:7318   */\n  dup2\n    /* \"#utility.yul\":7305:7306   */\n  dup5\n    /* \"#utility.yul\":7302:7303   */\n  0x01\n    /* \"#utility.yul\":7298:7307   */\n  mul\n    /* \"#utility.yul\":7284:7296   */\n  dup7\n    /* \"#utility.yul\":7257:7319   */\n  tag_31\n  jump\t// in\ntag_125:\n    /* \"#utility.yul\":7241:7319   */\n  swap4\n  pop\n    /* \"#utility.yul\":7359:7361   */\n  0x20\n    /* \"#utility.yul\":7351:7357   */\n  dup9\n    /* \"#utility.yul\":7347:7362   */\n  add\n    /* \"#utility.yul\":7337:7362   */\n  swap8\n  pop\n    /* \"#utility.yul\":7086:7377   */\n  pop\n  pop\n    /* \"#utility.yul\":7081:7082   */\n  0x01\n    /* \"#utility.yul\":7078:7079   */\n  dup2\n    /* \"#utility.yul\":7074:7083   */\n  add\n    /* \"#utility.yul\":7069:7083   */\n  swap1\n  pop\n    /* \"#utility.yul\":7035:7377   */\n  jump(tag_120)\ntag_122:\n    /* \"#utility.yul\":7039:7053   */\n  pop\n    /* \"#utility.yul\":7423:7435   */\n  dup1\n    /* \"#utility.yul\":7411:7420   */\n  dup4\n    /* \"#utility.yul\":7402:7409   */\n  dup6\n    /* \"#utility.yul\":7398:7421   */\n  add\n    /* \"#utility.yul\":7391:7436   */\n  sstore\n    /* \"#utility.yul\":6986:7446   */\n  pop\n    /* \"#utility.yul\":6970:7446   */\ntag_119:\n    /* \"#utility.yul\":5935:7453   */\n  pop\n  pop\n  pop\n  pop\n  pop\n    /* \"#utility.yul\":5827:7453   */\n  pop\n  pop\n  jump\t// out\n    /* \"contracts/Functions.sol\":199:507  contract Functions {... */\ntag_4:\n  dataSize(sub_0)\n  dup1\n  dataOffset(sub_0)\n  0x00\n  codecopy\n  0x00\n  return\nstop\n\nsub_0: assembly {\n        /* \"contracts/Functions.sol\":199:507  contract Functions {... */\n      mstore(0x40, 0x80)\n      callvalue\n      dup1\n      iszero\n      tag_1\n      jumpi\n      revert(0x00, 0x00)\n    tag_1:\n      pop\n      jumpi(tag_2, lt(calldatasize, 0x04))\n      shr(0xe0, calldataload(0x00))\n      dup1\n      0x3bd59457\n      eq\n      tag_3\n      jumpi\n      dup1\n      0xdf059dcc\n      eq\n      tag_4\n      jumpi\n      dup1\n      0xe7025593\n      eq\n      tag_5\n      jumpi\n    tag_2:\n      revert(0x00, 0x00)\n        /* \"contracts/Functions.sol\":322:430  function f10(uint8[4] memory arr) public returns (uint8){... */\n    tag_3:\n      tag_6\n      0x04\n      dup1\n      calldatasize\n      sub\n      dup2\n      add\n      swap1\n      tag_7\n      swap2\n      swap1\n      tag_8\n      jump\t// in\n    tag_7:\n      tag_9\n      jump\t// in\n    tag_6:\n      mload(0x40)\n      tag_10\n      swap2\n      swap1\n      tag_11\n      jump\t// in\n    tag_10:\n      mload(0x40)\n      dup1\n      swap2\n      sub\n      swap1\n      return\n        /* \"contracts/Functions.sol\":224:259  uint8[4] public sarr = [1, 2, 3, 4] */\n    tag_4:\n      tag_12\n      0x04\n      dup1\n      calldatasize\n      sub\n      dup2\n      add\n      swap1\n      tag_13\n      swap2\n      swap1\n      tag_14\n      jump\t// in\n    tag_13:\n      tag_15\n      jump\t// in\n    tag_12:\n      mload(0x40)\n      tag_16\n      swap2\n      swap1\n      tag_11\n      jump\t// in\n    tag_16:\n      mload(0x40)\n      dup1\n      swap2\n      sub\n      swap1\n      return\n        /* \"contracts/Functions.sol\":266:316  function f9() public {... */\n    tag_5:\n      tag_17\n      tag_18\n      jump\t// in\n    tag_17:\n      stop\n        /* \"contracts/Functions.sol\":322:430  function f10(uint8[4] memory arr) public returns (uint8){... */\n    tag_9:\n        /* \"contracts/Functions.sol\":372:377  uint8 */\n      0x00\n        /* \"contracts/Functions.sol\":398:400  20 */\n      0x14\n        /* \"contracts/Functions.sol\":388:392  sarr */\n      0x00\n        /* \"contracts/Functions.sol\":393:394  1 */\n      0x01\n        /* \"contracts/Functions.sol\":388:395  sarr[1] */\n      0x04\n      dup2\n      lt\n      tag_20\n      jumpi\n      tag_21\n      tag_22\n      jump\t// in\n    tag_21:\n    tag_20:\n      0x20\n      swap2\n      dup3\n      dup3\n      div\n      add\n      swap2\n      swap1\n      mod\n        /* \"contracts/Functions.sol\":388:400  sarr[1] = 20 */\n      0x0100\n      exp\n      dup2\n      sload\n      dup2\n      0xff\n      mul\n      not\n      and\n      swap1\n      dup4\n      0xff\n      and\n      mul\n      or\n      swap1\n      sstore\n      pop\n        /* \"contracts/Functions.sol\":417:420  arr */\n      dup2\n        /* \"contracts/Functions.sol\":421:422  1 */\n      0x01\n        /* \"contracts/Functions.sol\":417:423  arr[1] */\n      0x04\n      dup2\n      lt\n      tag_24\n      jumpi\n      tag_25\n      tag_22\n      jump\t// in\n    tag_25:\n    tag_24:\n      0x20\n      mul\n      add\n      mload\n        /* \"contracts/Functions.sol\":410:423  return arr[1] */\n      swap1\n      pop\n        /* \"contracts/Functions.sol\":322:430  function f10(uint8[4] memory arr) public returns (uint8){... */\n      swap2\n      swap1\n      pop\n      jump\t// out\n        /* \"contracts/Functions.sol\":224:259  uint8[4] public sarr = [1, 2, 3, 4] */\n    tag_15:\n      0x00\n      dup2\n      0x04\n      dup2\n      lt\n      tag_26\n      jumpi\n      0x00\n      dup1\n      revert\n    tag_26:\n      0x20\n      swap2\n      dup3\n      dup3\n      div\n      add\n      swap2\n      swap1\n      mod\n      swap2\n      pop\n      sload\n      swap1\n      0x0100\n      exp\n      swap1\n      div\n      0xff\n      and\n      dup2\n      jump\t// out\n        /* \"contracts/Functions.sol\":266:316  function f9() public {... */\n    tag_18:\n        /* \"contracts/Functions.sol\":307:309  10 */\n      0x0a\n        /* \"contracts/Functions.sol\":297:301  sarr */\n      0x00\n        /* \"contracts/Functions.sol\":302:303  0 */\n      0x00\n        /* \"contracts/Functions.sol\":297:304  sarr[0] */\n      0x04\n      dup2\n      lt\n      tag_29\n      jumpi\n      tag_30\n      tag_22\n      jump\t// in\n    tag_30:\n    tag_29:\n      0x20\n      swap2\n      dup3\n      dup3\n      div\n      add\n      swap2\n      swap1\n      mod\n        /* \"contracts/Functions.sol\":297:309  sarr[0] = 10 */\n      0x0100\n      exp\n      dup2\n      sload\n      dup2\n      0xff\n      mul\n      not\n      and\n      swap1\n      dup4\n      0xff\n      and\n      mul\n      or\n      swap1\n      sstore\n      pop\n        /* \"contracts/Functions.sol\":266:316  function f9() public {... */\n      jump\t// out\n        /* \"#utility.yul\":7:82   */\n    tag_32:\n        /* \"#utility.yul\":40:46   */\n      0x00\n        /* \"#utility.yul\":73:75   */\n      0x40\n        /* \"#utility.yul\":67:76   */\n      mload\n        /* \"#utility.yul\":57:76   */\n      swap1\n      pop\n        /* \"#utility.yul\":7:82   */\n      swap1\n      jump\t// out\n        /* \"#utility.yul\":88:205   */\n    tag_33:\n        /* \"#utility.yul\":197:198   */\n      0x00\n        /* \"#utility.yul\":194:195   */\n      0x00\n        /* \"#utility.yul\":187:199   */\n      revert\n        /* \"#utility.yul\":334:451   */\n    tag_35:\n        /* \"#utility.yul\":443:444   */\n      0x00\n        /* \"#utility.yul\":440:441   */\n      0x00\n        /* \"#utility.yul\":433:445   */\n      revert\n        /* \"#utility.yul\":457:559   */\n    tag_36:\n        /* \"#utility.yul\":498:504   */\n      0x00\n        /* \"#utility.yul\":549:551   */\n      0x1f\n        /* \"#utility.yul\":545:552   */\n      not\n        /* \"#utility.yul\":540:542   */\n      0x1f\n        /* \"#utility.yul\":533:538   */\n      dup4\n        /* \"#utility.yul\":529:543   */\n      add\n        /* \"#utility.yul\":525:553   */\n      and\n        /* \"#utility.yul\":515:553   */\n      swap1\n      pop\n        /* \"#utility.yul\":457:559   */\n      swap2\n      swap1\n      pop\n      jump\t// out\n        /* \"#utility.yul\":565:745   */\n    tag_37:\n        /* \"#utility.yul\":613:690   */\n      0x4e487b7100000000000000000000000000000000000000000000000000000000\n        /* \"#utility.yul\":610:611   */\n      0x00\n        /* \"#utility.yul\":603:691   */\n      mstore\n        /* \"#utility.yul\":710:714   */\n      0x41\n        /* \"#utility.yul\":707:708   */\n      0x04\n        /* \"#utility.yul\":700:715   */\n      mstore\n        /* \"#utility.yul\":734:738   */\n      0x24\n        /* \"#utility.yul\":731:732   */\n      0x00\n        /* \"#utility.yul\":724:739   */\n      revert\n        /* \"#utility.yul\":751:1032   */\n    tag_38:\n        /* \"#utility.yul\":834:861   */\n      tag_59\n        /* \"#utility.yul\":856:860   */\n      dup3\n        /* \"#utility.yul\":834:861   */\n      tag_36\n      jump\t// in\n    tag_59:\n        /* \"#utility.yul\":826:832   */\n      dup2\n        /* \"#utility.yul\":822:862   */\n      add\n        /* \"#utility.yul\":964:970   */\n      dup2\n        /* \"#utility.yul\":952:962   */\n      dup2\n        /* \"#utility.yul\":949:971   */\n      lt\n        /* \"#utility.yul\":928:946   */\n      0xffffffffffffffff\n        /* \"#utility.yul\":916:926   */\n      dup3\n        /* \"#utility.yul\":913:947   */\n      gt\n        /* \"#utility.yul\":910:972   */\n      or\n        /* \"#utility.yul\":907:995   */\n      iszero\n      tag_60\n      jumpi\n        /* \"#utility.yul\":975:993   */\n      tag_61\n      tag_37\n      jump\t// in\n    tag_61:\n        /* \"#utility.yul\":907:995   */\n    tag_60:\n        /* \"#utility.yul\":1015:1025   */\n      dup1\n        /* \"#utility.yul\":1011:1013   */\n      0x40\n        /* \"#utility.yul\":1004:1026   */\n      mstore\n        /* \"#utility.yul\":794:1032   */\n      pop\n        /* \"#utility.yul\":751:1032   */\n      pop\n      pop\n      jump\t// out\n        /* \"#utility.yul\":1038:1167   */\n    tag_39:\n        /* \"#utility.yul\":1072:1078   */\n      0x00\n        /* \"#utility.yul\":1099:1119   */\n      tag_63\n      tag_32\n      jump\t// in\n    tag_63:\n        /* \"#utility.yul\":1089:1119   */\n      swap1\n      pop\n        /* \"#utility.yul\":1128:1161   */\n      tag_64\n        /* \"#utility.yul\":1156:1160   */\n      dup3\n        /* \"#utility.yul\":1148:1154   */\n      dup3\n        /* \"#utility.yul\":1128:1161   */\n      tag_38\n      jump\t// in\n    tag_64:\n        /* \"#utility.yul\":1038:1167   */\n      swap2\n      swap1\n      pop\n      jump\t// out\n        /* \"#utility.yul\":1173:1420   */\n    tag_40:\n        /* \"#utility.yul\":1246:1250   */\n      0x00\n        /* \"#utility.yul\":1336:1354   */\n      0xffffffffffffffff\n        /* \"#utility.yul\":1328:1334   */\n      dup3\n        /* \"#utility.yul\":1325:1355   */\n      gt\n        /* \"#utility.yul\":1322:1378   */\n      iszero\n      tag_66\n      jumpi\n        /* \"#utility.yul\":1358:1376   */\n      tag_67\n      tag_37\n      jump\t// in\n    tag_67:\n        /* \"#utility.yul\":1322:1378   */\n    tag_66:\n        /* \"#utility.yul\":1408:1412   */\n      0x20\n        /* \"#utility.yul\":1400:1406   */\n      dup3\n        /* \"#utility.yul\":1396:1413   */\n      mul\n        /* \"#utility.yul\":1388:1413   */\n      swap1\n      pop\n        /* \"#utility.yul\":1173:1420   */\n      swap2\n      swap1\n      pop\n      jump\t// out\n        /* \"#utility.yul\":1426:1543   */\n    tag_41:\n        /* \"#utility.yul\":1535:1536   */\n      0x00\n        /* \"#utility.yul\":1532:1533   */\n      0x00\n        /* \"#utility.yul\":1525:1537   */\n      revert\n        /* \"#utility.yul\":1549:1635   */\n    tag_42:\n        /* \"#utility.yul\":1584:1591   */\n      0x00\n        /* \"#utility.yul\":1624:1628   */\n      0xff\n        /* \"#utility.yul\":1617:1622   */\n      dup3\n        /* \"#utility.yul\":1613:1629   */\n      and\n        /* \"#utility.yul\":1602:1629   */\n      swap1\n      pop\n        /* \"#utility.yul\":1549:1635   */\n      swap2\n      swap1\n      pop\n      jump\t// out\n        /* \"#utility.yul\":1641:1759   */\n    tag_43:\n        /* \"#utility.yul\":1712:1734   */\n      tag_71\n        /* \"#utility.yul\":1728:1733   */\n      dup2\n        /* \"#utility.yul\":1712:1734   */\n      tag_42\n      jump\t// in\n    tag_71:\n        /* \"#utility.yul\":1705:1710   */\n      dup2\n        /* \"#utility.yul\":1702:1735   */\n      eq\n        /* \"#utility.yul\":1692:1753   */\n      tag_72\n      jumpi\n        /* \"#utility.yul\":1749:1750   */\n      0x00\n        /* \"#utility.yul\":1746:1747   */\n      0x00\n        /* \"#utility.yul\":1739:1751   */\n      revert\n        /* \"#utility.yul\":1692:1753   */\n    tag_72:\n        /* \"#utility.yul\":1641:1759   */\n      pop\n      jump\t// out\n        /* \"#utility.yul\":1765:1900   */\n    tag_44:\n        /* \"#utility.yul\":1809:1814   */\n      0x00\n        /* \"#utility.yul\":1847:1853   */\n      dup2\n        /* \"#utility.yul\":1834:1854   */\n      calldataload\n        /* \"#utility.yul\":1825:1854   */\n      swap1\n      pop\n        /* \"#utility.yul\":1863:1894   */\n      tag_74\n        /* \"#utility.yul\":1888:1893   */\n      dup2\n        /* \"#utility.yul\":1863:1894   */\n      tag_43\n      jump\t// in\n    tag_74:\n        /* \"#utility.yul\":1765:1900   */\n      swap3\n      swap2\n      pop\n      pop\n      jump\t// out\n        /* \"#utility.yul\":1922:2559   */\n    tag_45:\n        /* \"#utility.yul\":2014:2019   */\n      0x00\n        /* \"#utility.yul\":2039:2116   */\n      tag_76\n        /* \"#utility.yul\":2055:2115   */\n      tag_77\n        /* \"#utility.yul\":2108:2114   */\n      dup5\n        /* \"#utility.yul\":2055:2115   */\n      tag_40\n      jump\t// in\n    tag_77:\n        /* \"#utility.yul\":2039:2116   */\n      tag_39\n      jump\t// in\n    tag_76:\n        /* \"#utility.yul\":2030:2116   */\n      swap1\n      pop\n        /* \"#utility.yul\":2136:2141   */\n      dup1\n        /* \"#utility.yul\":2189:2193   */\n      0x20\n        /* \"#utility.yul\":2181:2187   */\n      dup5\n        /* \"#utility.yul\":2177:2194   */\n      mul\n        /* \"#utility.yul\":2169:2175   */\n      dup4\n        /* \"#utility.yul\":2165:2195   */\n      add\n        /* \"#utility.yul\":2218:2221   */\n      dup6\n        /* \"#utility.yul\":2210:2216   */\n      dup2\n        /* \"#utility.yul\":2207:2222   */\n      gt\n        /* \"#utility.yul\":2204:2326   */\n      iszero\n      tag_78\n      jumpi\n        /* \"#utility.yul\":2237:2316   */\n      tag_79\n      tag_41\n      jump\t// in\n    tag_79:\n        /* \"#utility.yul\":2204:2326   */\n    tag_78:\n        /* \"#utility.yul\":2352:2358   */\n      dup4\n        /* \"#utility.yul\":2335:2553   */\n    tag_80:\n        /* \"#utility.yul\":2369:2375   */\n      dup2\n        /* \"#utility.yul\":2364:2367   */\n      dup2\n        /* \"#utility.yul\":2361:2376   */\n      lt\n        /* \"#utility.yul\":2335:2553   */\n      iszero\n      tag_82\n      jumpi\n        /* \"#utility.yul\":2444:2447   */\n      dup1\n        /* \"#utility.yul\":2473:2508   */\n      tag_83\n        /* \"#utility.yul\":2504:2507   */\n      dup9\n        /* \"#utility.yul\":2492:2502   */\n      dup3\n        /* \"#utility.yul\":2473:2508   */\n      tag_44\n      jump\t// in\n    tag_83:\n        /* \"#utility.yul\":2468:2471   */\n      dup5\n        /* \"#utility.yul\":2461:2509   */\n      mstore\n        /* \"#utility.yul\":2538:2542   */\n      0x20\n        /* \"#utility.yul\":2533:2536   */\n      dup5\n        /* \"#utility.yul\":2529:2543   */\n      add\n        /* \"#utility.yul\":2522:2543   */\n      swap4\n      pop\n        /* \"#utility.yul\":2411:2553   */\n      pop\n        /* \"#utility.yul\":2395:2399   */\n      0x20\n        /* \"#utility.yul\":2390:2393   */\n      dup2\n        /* \"#utility.yul\":2386:2400   */\n      add\n        /* \"#utility.yul\":2379:2400   */\n      swap1\n      pop\n        /* \"#utility.yul\":2335:2553   */\n      jump(tag_80)\n    tag_82:\n        /* \"#utility.yul\":2339:2360   */\n      pop\n        /* \"#utility.yul\":2020:2559   */\n      pop\n      pop\n        /* \"#utility.yul\":1922:2559   */\n      swap4\n      swap3\n      pop\n      pop\n      pop\n      jump\t// out\n        /* \"#utility.yul\":2581:2916   */\n    tag_46:\n        /* \"#utility.yul\":2648:2653   */\n      0x00\n        /* \"#utility.yul\":2697:2700   */\n      dup3\n        /* \"#utility.yul\":2690:2694   */\n      0x1f\n        /* \"#utility.yul\":2682:2688   */\n      dup4\n        /* \"#utility.yul\":2678:2695   */\n      add\n        /* \"#utility.yul\":2674:2701   */\n      slt\n        /* \"#utility.yul\":2664:2786   */\n      tag_85\n      jumpi\n        /* \"#utility.yul\":2705:2784   */\n      tag_86\n      tag_35\n      jump\t// in\n    tag_86:\n        /* \"#utility.yul\":2664:2786   */\n    tag_85:\n        /* \"#utility.yul\":2809:2813   */\n      0x04\n        /* \"#utility.yul\":2831:2910   */\n      tag_87\n        /* \"#utility.yul\":2906:2909   */\n      dup5\n        /* \"#utility.yul\":2898:2904   */\n      dup3\n        /* \"#utility.yul\":2890:2896   */\n      dup6\n        /* \"#utility.yul\":2831:2910   */\n      tag_45\n      jump\t// in\n    tag_87:\n        /* \"#utility.yul\":2822:2910   */\n      swap2\n      pop\n        /* \"#utility.yul\":2654:2916   */\n      pop\n        /* \"#utility.yul\":2581:2916   */\n      swap3\n      swap2\n      pop\n      pop\n      jump\t// out\n        /* \"#utility.yul\":2922:3294   */\n    tag_8:\n        /* \"#utility.yul\":3002:3008   */\n      0x00\n        /* \"#utility.yul\":3051:3054   */\n      0x80\n        /* \"#utility.yul\":3039:3048   */\n      dup3\n        /* \"#utility.yul\":3030:3037   */\n      dup5\n        /* \"#utility.yul\":3026:3049   */\n      sub\n        /* \"#utility.yul\":3022:3055   */\n      slt\n        /* \"#utility.yul\":3019:3139   */\n      iszero\n      tag_89\n      jumpi\n        /* \"#utility.yul\":3058:3137   */\n      tag_90\n      tag_33\n      jump\t// in\n    tag_90:\n        /* \"#utility.yul\":3019:3139   */\n    tag_89:\n        /* \"#utility.yul\":3178:3179   */\n      0x00\n        /* \"#utility.yul\":3203:3277   */\n      tag_91\n        /* \"#utility.yul\":3269:3276   */\n      dup5\n        /* \"#utility.yul\":3260:3266   */\n      dup3\n        /* \"#utility.yul\":3249:3258   */\n      dup6\n        /* \"#utility.yul\":3245:3267   */\n      add\n        /* \"#utility.yul\":3203:3277   */\n      tag_46\n      jump\t// in\n    tag_91:\n        /* \"#utility.yul\":3193:3277   */\n      swap2\n      pop\n        /* \"#utility.yul\":3149:3287   */\n      pop\n        /* \"#utility.yul\":2922:3294   */\n      swap3\n      swap2\n      pop\n      pop\n      jump\t// out\n        /* \"#utility.yul\":3300:3412   */\n    tag_47:\n        /* \"#utility.yul\":3383:3405   */\n      tag_93\n        /* \"#utility.yul\":3399:3404   */\n      dup2\n        /* \"#utility.yul\":3383:3405   */\n      tag_42\n      jump\t// in\n    tag_93:\n        /* \"#utility.yul\":3378:3381   */\n      dup3\n        /* \"#utility.yul\":3371:3406   */\n      mstore\n        /* \"#utility.yul\":3300:3412   */\n      pop\n      pop\n      jump\t// out\n        /* \"#utility.yul\":3418:3632   */\n    tag_11:\n        /* \"#utility.yul\":3507:3511   */\n      0x00\n        /* \"#utility.yul\":3545:3547   */\n      0x20\n        /* \"#utility.yul\":3534:3543   */\n      dup3\n        /* \"#utility.yul\":3530:3548   */\n      add\n        /* \"#utility.yul\":3522:3548   */\n      swap1\n      pop\n        /* \"#utility.yul\":3558:3625   */\n      tag_95\n        /* \"#utility.yul\":3622:3623   */\n      0x00\n        /* \"#utility.yul\":3611:3620   */\n      dup4\n        /* \"#utility.yul\":3607:3624   */\n      add\n        /* \"#utility.yul\":3598:3604   */\n      dup5\n        /* \"#utility.yul\":3558:3625   */\n      tag_47\n      jump\t// in\n    tag_95:\n        /* \"#utility.yul\":3418:3632   */\n      swap3\n      swap2\n      pop\n      pop\n      jump\t// out\n        /* \"#utility.yul\":3638:3715   */\n    tag_48:\n        /* \"#utility.yul\":3675:3682   */\n      0x00\n        /* \"#utility.yul\":3704:3709   */\n      dup2\n        /* \"#utility.yul\":3693:3709   */\n      swap1\n      pop\n        /* \"#utility.yul\":3638:3715   */\n      swap2\n      swap1\n      pop\n      jump\t// out\n        /* \"#utility.yul\":3721:3843   */\n    tag_49:\n        /* \"#utility.yul\":3794:3818   */\n      tag_98\n        /* \"#utility.yul\":3812:3817   */\n      dup2\n        /* \"#utility.yul\":3794:3818   */\n      tag_48\n      jump\t// in\n    tag_98:\n        /* \"#utility.yul\":3787:3792   */\n      dup2\n        /* \"#utility.yul\":3784:3819   */\n      eq\n        /* \"#utility.yul\":3774:3837   */\n      tag_99\n      jumpi\n        /* \"#utility.yul\":3833:3834   */\n      0x00\n        /* \"#utility.yul\":3830:3831   */\n      0x00\n        /* \"#utility.yul\":3823:3835   */\n      revert\n        /* \"#utility.yul\":3774:3837   */\n    tag_99:\n        /* \"#utility.yul\":3721:3843   */\n      pop\n      jump\t// out\n        /* \"#utility.yul\":3849:3988   */\n    tag_50:\n        /* \"#utility.yul\":3895:3900   */\n      0x00\n        /* \"#utility.yul\":3933:3939   */\n      dup2\n        /* \"#utility.yul\":3920:3940   */\n      calldataload\n        /* \"#utility.yul\":3911:3940   */\n      swap1\n      pop\n        /* \"#utility.yul\":3949:3982   */\n      tag_101\n        /* \"#utility.yul\":3976:3981   */\n      dup2\n        /* \"#utility.yul\":3949:3982   */\n      tag_49\n      jump\t// in\n    tag_101:\n        /* \"#utility.yul\":3849:3988   */\n      swap3\n      swap2\n      pop\n      pop\n      jump\t// out\n        /* \"#utility.yul\":3994:4323   */\n    tag_14:\n        /* \"#utility.yul\":4053:4059   */\n      0x00\n        /* \"#utility.yul\":4102:4104   */\n      0x20\n        /* \"#utility.yul\":4090:4099   */\n      dup3\n        /* \"#utility.yul\":4081:4088   */\n      dup5\n        /* \"#utility.yul\":4077:4100   */\n      sub\n        /* \"#utility.yul\":4073:4105   */\n      slt\n        /* \"#utility.yul\":4070:4189   */\n      iszero\n      tag_103\n      jumpi\n        /* \"#utility.yul\":4108:4187   */\n      tag_104\n      tag_33\n      jump\t// in\n    tag_104:\n        /* \"#utility.yul\":4070:4189   */\n    tag_103:\n        /* \"#utility.yul\":4228:4229   */\n      0x00\n        /* \"#utility.yul\":4253:4306   */\n      tag_105\n        /* \"#utility.yul\":4298:4305   */\n      dup5\n        /* \"#utility.yul\":4289:4295   */\n      dup3\n        /* \"#utility.yul\":4278:4287   */\n      dup6\n        /* \"#utility.yul\":4274:4296   */\n      add\n        /* \"#utility.yul\":4253:4306   */\n      tag_50\n      jump\t// in\n    tag_105:\n        /* \"#utility.yul\":4243:4306   */\n      swap2\n      pop\n        /* \"#utility.yul\":4199:4316   */\n      pop\n        /* \"#utility.yul\":3994:4323   */\n      swap3\n      swap2\n      pop\n      pop\n      jump\t// out\n        /* \"#utility.yul\":4329:4509   */\n    tag_22:\n        /* \"#utility.yul\":4377:4454   */\n      0x4e487b7100000000000000000000000000000000000000000000000000000000\n        /* \"#utility.yul\":4374:4375   */\n      0x00\n        /* \"#utility.yul\":4367:4455   */\n      mstore\n        /* \"#utility.yul\":4474:4478   */\n      0x32\n        /* \"#utility.yul\":4471:4472   */\n      0x04\n        /* \"#utility.yul\":4464:4479   */\n      mstore\n        /* \"#utility.yul\":4498:4502   */\n      0x24\n        /* \"#utility.yul\":4495:4496   */\n      0x00\n        /* \"#utility.yul\":4488:4503   */\n      revert\n\n    auxdata: 0xa26469706673582212200caa2bd4df27056e6dd753f1c7b4c25f09d5afe69677dc1a2fc6118aa3a1950164736f6c63430008220033\n}\n",
				"bytecode": {
					"linkReferences": {},
					"object": "60806040526040518060800160405280600160ff168152602001600260ff168152602001600360ff168152602001600460ff168152505f908161004291906102ee565b5034801561004e575f5ffd5b506103ed565b7f4e487b71000000000000000000000000000000000000000000000000000000005f52604160045260245ffd5b5f60049050919050565b5f819050919050565b5f819050602060016020038301049050919050565b5f819050919050565b5f82821b905092915050565b5f600883026100ed7fffffffffffffffffffffffffffffffffffffffffffffffffffffffffffffffff826100b2565b6100f786836100b2565b95508019841693508086168417925050509392505050565b5f819050919050565b5f61013261012d6101288461008b565b61010f565b61008b565b9050919050565b5f819050919050565b61014b83610118565b61015f61015782610139565b8484546100be565b825550505050565b5f5f905090565b610176610167565b610181818484610142565b505050565b5f5b828110156101a75761019c5f82840161016e565b600181019050610188565b505050565b5f82821c905092915050565b6101e87fffffffffffffffffffffffffffffffffffffffffffffffffffffffffffffffff836020036008026101ac565b815481168255505050565b818310156102485761020482610094565b61020d84610094565b610216836100a9565b818101600160208806025f8111156102365761023581600184036101b8565b5b61024284860383610186565b50505050505b505050565b6801000000000000000082111561026757610266610054565b5b61027081610081565b61027b8382846101f3565b505050565b5f60049050919050565b5f60ff82169050919050565b5f6102a1825161028a565b80915050919050565b5f819050919050565b5f600883026102c360ff826100b2565b6102cd86836100b2565b95508019841693508086168417925050509392505050565b5f819050919050565b6102f782610280565b67ffffffffffffffff8111156103105761030f610054565b5b61031a818361024d565b610323836102aa565b61032c836100a9565b602083045f5b8181101561038d575f5f5b602081101561037b5761034f86610296565b610358816102e5565b6103668184600102866102b3565b9350602088019750505060018101905061033d565b50808285015550600181019050610332565b506020810284035f8111156103e4575f5f5b828110156103dc576103b086610296565b6103b9816102e5565b6103c78184600102866102b3565b9350602088019750505060018101905061039f565b508083850155505b50505050505050565b6103f8806103fa5f395ff3fe608060405234801561000f575f5ffd5b506004361061003f575f3560e01c80633bd5945714610043578063df059dcc14610073578063e7025593146100a3575b5f5ffd5b61005d600480360381019061005891906102e4565b6100ad565b60405161006a919061031e565b60405180910390f35b61008d6004803603810190610088919061036a565b610104565b60405161009a919061031e565b60405180910390f35b6100ab61012c565b005b5f60145f6001600481106100c4576100c3610395565b5b602091828204019190066101000a81548160ff021916908360ff160217905550816001600481106100f8576100f7610395565b5b60200201519050919050565b5f8160048110610112575f80fd5b60209182820401919006915054906101000a900460ff1681565b600a5f5f6004811061014157610140610395565b5b602091828204019190066101000a81548160ff021916908360ff160217905550565b5f604051905090565b5f5ffd5b5f5ffd5b5f601f19601f8301169050919050565b7f4e487b71000000000000000000000000000000000000000000000000000000005f52604160045260245ffd5b6101ba82610174565b810181811067ffffffffffffffff821117156101d9576101d8610184565b5b80604052505050565b5f6101eb610163565b90506101f782826101b1565b919050565b5f67ffffffffffffffff82111561021657610215610184565b5b602082029050919050565b5f5ffd5b5f60ff82169050919050565b61023a81610225565b8114610244575f5ffd5b50565b5f8135905061025581610231565b92915050565b5f61026d610268846101fc565b6101e2565b9050806020840283018581111561028757610286610221565b5b835b818110156102b0578061029c8882610247565b845260208401935050602081019050610289565b5050509392505050565b5f82601f8301126102ce576102cd610170565b5b60046102db84828561025b565b91505092915050565b5f608082840312156102f9576102f861016c565b5b5f610306848285016102ba565b91505092915050565b61031881610225565b82525050565b5f6020820190506103315f83018461030f565b92915050565b5f819050919050565b61034981610337565b8114610353575f5ffd5b50565b5f8135905061036481610340565b92915050565b5f6020828403121561037f5761037e61016c565b5b5f61038c84828501610356565b91505092915050565b7f4e487b71000000000000000000000000000000000000000000000000000000005f52603260045260245ffdfea26469706673582212200caa2bd4df27056e6dd753f1c7b4c25f09d5afe69677dc1a2fc6118aa3a1950164736f6c63430008220033",
					"opcodes": "PUSH1 0x80 PUSH1 0x40 MSTORE PUSH1 0x40 MLOAD DUP1 PUSH1 0x80 ADD PUSH1 0x40 MSTORE DUP1 PUSH1 0x1 PUSH1 0xFF AND DUP2 MSTORE PUSH1 0x20 ADD PUSH1 0x2 PUSH1 0xFF AND DUP2 MSTORE PUSH1 0x20 ADD PUSH1 0x3 PUSH1 0xFF AND DUP2 MSTORE PUSH1 0x20 ADD PUSH1 0x4 PUSH1 0xFF AND DUP2 MSTORE POP PUSH0 SWAP1 DUP2 PUSH2 0x42 SWAP2 SWAP1 PUSH2 0x2EE JUMP JUMPDEST POP CALLVALUE DUP1 ISZERO PUSH2 0x4E JUMPI PUSH0 PUSH0 REVERT JUMPDEST POP PUSH2 0x3ED JUMP JUMPDEST PUSH32 0x4E487B7100000000000000000000000000000000000000000000000000000000 PUSH0 MSTORE PUSH1 0x41 PUSH1 0x4 MSTORE PUSH1 0x24 PUSH0 REVERT JUMPDEST PUSH0 PUSH1 0x4 SWAP1 POP SWAP2 SWAP1 POP JUMP JUMPDEST PUSH0 DUP2 SWAP1 POP SWAP2 SWAP1 POP JUMP JUMPDEST PUSH0 DUP2 SWAP1 POP PUSH1 0x20 PUSH1 0x1 PUSH1 0x20 SUB DUP4 ADD DIV SWAP1 POP SWAP2 SWAP1 POP JUMP JUMPDEST PUSH0 DUP2 SWAP1 POP SWAP2 SWAP1 POP JUMP JUMPDEST PUSH0 DUP3 DUP3 SHL SWAP1 POP SWAP3 SWAP2 POP POP JUMP JUMPDEST PUSH0 PUSH1 0x8 DUP4 MUL PUSH2 0xED PUSH32 0xFFFFFFFFFFFFFFFFFFFFFFFFFFFFFFFFFFFFFFFFFFFFFFFFFFFFFFFFFFFFFFFF DUP3 PUSH2 0xB2 JUMP JUMPDEST PUSH2 0xF7 DUP7 DUP4 PUSH2 0xB2 JUMP JUMPDEST SWAP6 POP DUP1 NOT DUP5 AND SWAP4 POP DUP1 DUP7 AND DUP5 OR SWAP3 POP POP POP SWAP4 SWAP3 POP POP POP JUMP JUMPDEST PUSH0 DUP2 SWAP1 POP SWAP2 SWAP1 POP JUMP JUMPDEST PUSH0 PUSH2 0x132 PUSH2 0x12D PUSH2 0x128 DUP5 PUSH2 0x8B JUMP JUMPDEST PUSH2 0x10F JUMP JUMPDEST PUSH2 0x8B JUMP JUMPDEST SWAP1 POP SWAP2 SWAP1 POP JUMP JUMPDEST PUSH0 DUP2 SWAP1 POP SWAP2 SWAP1 POP JUMP JUMPDEST PUSH2 0x14B DUP4 PUSH2 0x118 JUMP JUMPDEST PUSH2 0x15F PUSH2 0x157 DUP3 PUSH2 0x139 JUMP JUMPDEST DUP5 DUP5 SLOAD PUSH2 0xBE JUMP JUMPDEST DUP3 SSTORE POP POP POP POP JUMP JUMPDEST PUSH0 PUSH0 SWAP1 POP SWAP1 JUMP JUMPDEST PUSH2 0x176 PUSH2 0x167 JUMP JUMPDEST PUSH2 0x181 DUP2 DUP5 DUP5 PUSH2 0x142 JUMP JUMPDEST POP POP POP JUMP JUMPDEST PUSH0 JUMPDEST DUP3 DUP2 LT ISZERO PUSH2 0x1A7 JUMPI PUSH2 0x19C PUSH0 DUP3 DUP5 ADD PUSH2 0x16E JUMP JUMPDEST PUSH1 0x1 DUP2 ADD SWAP1 POP PUSH2 0x188 JUMP JUMPDEST POP POP POP JUMP JUMPDEST PUSH0 DUP3 DUP3 SHR SWAP1 POP SWAP3 SWAP2 POP POP JUMP JUMPDEST PUSH2 0x1E8 PUSH32 0xFFFFFFFFFFFFFFFFFFFFFFFFFFFFFFFFFFFFFFFFFFFFFFFFFFFFFFFFFFFFFFFF DUP4 PUSH1 0x20 SUB PUSH1 0x8 MUL PUSH2 0x1AC JUMP JUMPDEST DUP2 SLOAD DUP2 AND DUP3 SSTORE POP POP POP JUMP JUMPDEST DUP2 DUP4 LT ISZERO PUSH2 0x248 JUMPI PUSH2 0x204 DUP3 PUSH2 0x94 JUMP JUMPDEST PUSH2 0x20D DUP5 PUSH2 0x94 JUMP JUMPDEST PUSH2 0x216 DUP4 PUSH2 0xA9 JUMP JUMPDEST DUP2 DUP2 ADD PUSH1 0x1 PUSH1 0x20 DUP9 MOD MUL PUSH0 DUP2 GT ISZERO PUSH2 0x236 JUMPI PUSH2 0x235 DUP2 PUSH1 0x1 DUP5 SUB PUSH2 0x1B8 JUMP JUMPDEST JUMPDEST PUSH2 0x242 DUP5 DUP7 SUB DUP4 PUSH2 0x186 JUMP JUMPDEST POP POP POP POP POP JUMPDEST POP POP POP JUMP JUMPDEST PUSH9 0x10000000000000000 DUP3 GT ISZERO PUSH2 0x267 JUMPI PUSH2 0x266 PUSH2 0x54 JUMP JUMPDEST JUMPDEST PUSH2 0x270 DUP2 PUSH2 0x81 JUMP JUMPDEST PUSH2 0x27B DUP4 DUP3 DUP5 PUSH2 0x1F3 JUMP JUMPDEST POP POP POP JUMP JUMPDEST PUSH0 PUSH1 0x4 SWAP1 POP SWAP2 SWAP1 POP JUMP JUMPDEST PUSH0 PUSH1 0xFF DUP3 AND SWAP1 POP SWAP2 SWAP1 POP JUMP JUMPDEST PUSH0 PUSH2 0x2A1 DUP3 MLOAD PUSH2 0x28A JUMP JUMPDEST DUP1 SWAP2 POP POP SWAP2 SWAP1 POP JUMP JUMPDEST PUSH0 DUP2 SWAP1 POP SWAP2 SWAP1 POP JUMP JUMPDEST PUSH0 PUSH1 0x8 DUP4 MUL PUSH2 0x2C3 PUSH1 0xFF DUP3 PUSH2 0xB2 JUMP JUMPDEST PUSH2 0x2CD DUP7 DUP4 PUSH2 0xB2 JUMP JUMPDEST SWAP6 POP DUP1 NOT DUP5 AND SWAP4 POP DUP1 DUP7 AND DUP5 OR SWAP3 POP POP POP SWAP4 SWAP3 POP POP POP JUMP JUMPDEST PUSH0 DUP2 SWAP1 POP SWAP2 SWAP1 POP JUMP JUMPDEST PUSH2 0x2F7 DUP3 PUSH2 0x280 JUMP JUMPDEST PUSH8 0xFFFFFFFFFFFFFFFF DUP2 GT ISZERO PUSH2 0x310 JUMPI PUSH2 0x30F PUSH2 0x54 JUMP JUMPDEST JUMPDEST PUSH2 0x31A DUP2 DUP4 PUSH2 0x24D JUMP JUMPDEST PUSH2 0x323 DUP4 PUSH2 0x2AA JUMP JUMPDEST PUSH2 0x32C DUP4 PUSH2 0xA9 JUMP JUMPDEST PUSH1 0x20 DUP4 DIV PUSH0 JUMPDEST DUP2 DUP2 LT ISZERO PUSH2 0x38D JUMPI PUSH0 PUSH0 JUMPDEST PUSH1 0x20 DUP2 LT ISZERO PUSH2 0x37B JUMPI PUSH2 0x34F DUP7 PUSH2 0x296 JUMP JUMPDEST PUSH2 0x358 DUP2 PUSH2 0x2E5 JUMP JUMPDEST PUSH2 0x366 DUP2 DUP5 PUSH1 0x1 MUL DUP7 PUSH2 0x2B3 JUMP JUMPDEST SWAP4 POP PUSH1 0x20 DUP9 ADD SWAP8 POP POP POP PUSH1 0x1 DUP2 ADD SWAP1 POP PUSH2 0x33D JUMP JUMPDEST POP DUP1 DUP3 DUP6 ADD SSTORE POP PUSH1 0x1 DUP2 ADD SWAP1 POP PUSH2 0x332 JUMP JUMPDEST POP PUSH1 0x20 DUP2 MUL DUP5 SUB PUSH0 DUP2 GT ISZERO PUSH2 0x3E4 JUMPI PUSH0 PUSH0 JUMPDEST DUP3 DUP2 LT ISZERO PUSH2 0x3DC JUMPI PUSH2 0x3B0 DUP7 PUSH2 0x296 JUMP JUMPDEST PUSH2 0x3B9 DUP2 PUSH2 0x2E5 JUMP JUMPDEST PUSH2 0x3C7 DUP2 DUP5 PUSH1 0x1 MUL DUP7 PUSH2 0x2B3 JUMP JUMPDEST SWAP4 POP PUSH1 0x20 DUP9 ADD SWAP8 POP POP POP PUSH1 0x1 DUP2 ADD SWAP1 POP PUSH2 0x39F JUMP JUMPDEST POP DUP1 DUP4 DUP6 ADD SSTORE POP JUMPDEST POP POP POP POP POP POP POP JUMP JUMPDEST PUSH2 0x3F8 DUP1 PUSH2 0x3FA PUSH0 CODECOPY PUSH0 RETURN INVALID PUSH1 0x80 PUSH1 0x40 MSTORE CALLVALUE DUP1 ISZERO PUSH2 0xF JUMPI PUSH0 PUSH0 REVERT JUMPDEST POP PUSH1 0x4 CALLDATASIZE LT PUSH2 0x3F JUMPI PUSH0 CALLDATALOAD PUSH1 0xE0 SHR DUP1 PUSH4 0x3BD59457 EQ PUSH2 0x43 JUMPI DUP1 PUSH4 0xDF059DCC EQ PUSH2 0x73 JUMPI DUP1 PUSH4 0xE7025593 EQ PUSH2 0xA3 JUMPI JUMPDEST PUSH0 PUSH0 REVERT JUMPDEST PUSH2 0x5D PUSH1 0x4 DUP1 CALLDATASIZE SUB DUP2 ADD SWAP1 PUSH2 0x58 SWAP2 SWAP1 PUSH2 0x2E4 JUMP JUMPDEST PUSH2 0xAD JUMP JUMPDEST PUSH1 0x40 MLOAD PUSH2 0x6A SWAP2 SWAP1 PUSH2 0x31E JUMP JUMPDEST PUSH1 0x40 MLOAD DUP1 SWAP2 SUB SWAP1 RETURN JUMPDEST PUSH2 0x8D PUSH1 0x4 DUP1 CALLDATASIZE SUB DUP2 ADD SWAP1 PUSH2 0x88 SWAP2 SWAP1 PUSH2 0x36A JUMP JUMPDEST PUSH2 0x104 JUMP JUMPDEST PUSH1 0x40 MLOAD PUSH2 0x9A SWAP2 SWAP1 PUSH2 0x31E JUMP JUMPDEST PUSH1 0x40 MLOAD DUP1 SWAP2 SUB SWAP1 RETURN JUMPDEST PUSH2 0xAB PUSH2 0x12C JUMP JUMPDEST STOP JUMPDEST PUSH0 PUSH1 0x14 PUSH0 PUSH1 0x1 PUSH1 0x4 DUP2 LT PUSH2 0xC4 JUMPI PUSH2 0xC3 PUSH2 0x395 JUMP JUMPDEST JUMPDEST PUSH1 0x20 SWAP2 DUP3 DUP3 DIV ADD SWAP2 SWAP1 MOD PUSH2 0x100 EXP DUP2 SLOAD DUP2 PUSH1 0xFF MUL NOT AND SWAP1 DUP4 PUSH1 0xFF AND MUL OR SWAP1 SSTORE POP DUP2 PUSH1 0x1 PUSH1 0x4 DUP2 LT PUSH2 0xF8 JUMPI PUSH2 0xF7 PUSH2 0x395 JUMP JUMPDEST JUMPDEST PUSH1 0x20 MUL ADD MLOAD SWAP1 POP SWAP2 SWAP1 POP JUMP JUMPDEST PUSH0 DUP2 PUSH1 0x4 DUP2 LT PUSH2 0x112 JUMPI PUSH0 DUP1 REVERT JUMPDEST PUSH1 0x20 SWAP2 DUP3 DUP3 DIV ADD SWAP2 SWAP1 MOD SWAP2 POP SLOAD SWAP1 PUSH2 0x100 EXP SWAP1 DIV PUSH1 0xFF AND DUP2 JUMP JUMPDEST PUSH1 0xA PUSH0 PUSH0 PUSH1 0x4 DUP2 LT PUSH2 0x141 JUMPI PUSH2 0x140 PUSH2 0x395 JUMP JUMPDEST JUMPDEST PUSH1 0x20 SWAP2 DUP3 DUP3 DIV ADD SWAP2 SWAP1 MOD PUSH2 0x100 EXP DUP2 SLOAD DUP2 PUSH1 0xFF MUL NOT AND SWAP1 DUP4 PUSH1 0xFF AND MUL OR SWAP1 SSTORE POP JUMP JUMPDEST PUSH0 PUSH1 0x40 MLOAD SWAP1 POP SWAP1 JUMP JUMPDEST PUSH0 PUSH0 REVERT JUMPDEST PUSH0 PUSH0 REVERT JUMPDEST PUSH0 PUSH1 0x1F NOT PUSH1 0x1F DUP4 ADD AND SWAP1 POP SWAP2 SWAP1 POP JUMP JUMPDEST PUSH32 0x4E487B7100000000000000000000000000000000000000000000000000000000 PUSH0 MSTORE PUSH1 0x41 PUSH1 0x4 MSTORE PUSH1 0x24 PUSH0 REVERT JUMPDEST PUSH2 0x1BA DUP3 PUSH2 0x174 JUMP JUMPDEST DUP2 ADD DUP2 DUP2 LT PUSH8 0xFFFFFFFFFFFFFFFF DUP3 GT OR ISZERO PUSH2 0x1D9 JUMPI PUSH2 0x1D8 PUSH2 0x184 JUMP JUMPDEST JUMPDEST DUP1 PUSH1 0x40 MSTORE POP POP POP JUMP JUMPDEST PUSH0 PUSH2 0x1EB PUSH2 0x163 JUMP JUMPDEST SWAP1 POP PUSH2 0x1F7 DUP3 DUP3 PUSH2 0x1B1 JUMP JUMPDEST SWAP2 SWAP1 POP JUMP JUMPDEST PUSH0 PUSH8 0xFFFFFFFFFFFFFFFF DUP3 GT ISZERO PUSH2 0x216 JUMPI PUSH2 0x215 PUSH2 0x184 JUMP JUMPDEST JUMPDEST PUSH1 0x20 DUP3 MUL SWAP1 POP SWAP2 SWAP1 POP JUMP JUMPDEST PUSH0 PUSH0 REVERT JUMPDEST PUSH0 PUSH1 0xFF DUP3 AND SWAP1 POP SWAP2 SWAP1 POP JUMP JUMPDEST PUSH2 0x23A DUP2 PUSH2 0x225 JUMP JUMPDEST DUP2 EQ PUSH2 0x244 JUMPI PUSH0 PUSH0 REVERT JUMPDEST POP JUMP JUMPDEST PUSH0 DUP2 CALLDATALOAD SWAP1 POP PUSH2 0x255 DUP2 PUSH2 0x231 JUMP JUMPDEST SWAP3 SWAP2 POP POP JUMP JUMPDEST PUSH0 PUSH2 0x26D PUSH2 0x268 DUP5 PUSH2 0x1FC JUMP JUMPDEST PUSH2 0x1E2 JUMP JUMPDEST SWAP1 POP DUP1 PUSH1 0x20 DUP5 MUL DUP4 ADD DUP6 DUP2 GT ISZERO PUSH2 0x287 JUMPI PUSH2 0x286 PUSH2 0x221 JUMP JUMPDEST JUMPDEST DUP4 JUMPDEST DUP2 DUP2 LT ISZERO PUSH2 0x2B0 JUMPI DUP1 PUSH2 0x29C DUP9 DUP3 PUSH2 0x247 JUMP JUMPDEST DUP5 MSTORE PUSH1 0x20 DUP5 ADD SWAP4 POP POP PUSH1 0x20 DUP2 ADD SWAP1 POP PUSH2 0x289 JUMP JUMPDEST POP POP POP SWAP4 SWAP3 POP POP POP JUMP JUMPDEST PUSH0 DUP3 PUSH1 0x1F DUP4 ADD SLT PUSH2 0x2CE JUMPI PUSH2 0x2CD PUSH2 0x170 JUMP JUMPDEST JUMPDEST PUSH1 0x4 PUSH2 0x2DB DUP5 DUP3 DUP6 PUSH2 0x25B JUMP JUMPDEST SWAP2 POP POP SWAP3 SWAP2 POP POP JUMP JUMPDEST PUSH0 PUSH1 0x80 DUP3 DUP5 SUB SLT ISZERO PUSH2 0x2F9 JUMPI PUSH2 0x2F8 PUSH2 0x16C JUMP JUMPDEST JUMPDEST PUSH0 PUSH2 0x306 DUP5 DUP3 DUP6 ADD PUSH2 0x2BA JUMP JUMPDEST SWAP2 POP POP SWAP3 SWAP2 POP POP JUMP JUMPDEST PUSH2 0x318 DUP2 PUSH2 0x225 JUMP JUMPDEST DUP3 MSTORE POP POP JUMP JUMPDEST PUSH0 PUSH1 0x20 DUP3 ADD SWAP1 POP PUSH2 0x331 PUSH0 DUP4 ADD DUP5 PUSH2 0x30F JUMP JUMPDEST SWAP3 SWAP2 POP POP JUMP JUMPDEST PUSH0 DUP2 SWAP1 POP SWAP2 SWAP1 POP JUMP JUMPDEST PUSH2 0x349 DUP2 PUSH2 0x337 JUMP JUMPDEST DUP2 EQ PUSH2 0x353 JUMPI PUSH0 PUSH0 REVERT JUMPDEST POP JUMP JUMPDEST PUSH0 DUP2 CALLDATALOAD SWAP1 POP PUSH2 0x364 DUP2 PUSH2 0x340 JUMP JUMPDEST SWAP3 SWAP2 POP POP JUMP JUMPDEST PUSH0 PUSH1 0x20 DUP3 DUP5 SUB SLT ISZERO PUSH2 0x37F JUMPI PUSH2 0x37E PUSH2 0x16C JUMP JUMPDEST JUMPDEST PUSH0 PUSH2 0x38C DUP5 DUP3 DUP6 ADD PUSH2 0x356 JUMP JUMPDEST SWAP2 POP POP SWAP3 SWAP2 POP POP JUMP JUMPDEST PUSH32 0x4E487B7100000000000000000000000000000000000000000000000000000000 PUSH0 MSTORE PUSH1 0x32 PUSH1 0x4 MSTORE PUSH1 0x24 PUSH0 REVERT INVALID LOG2 PUSH5 0x6970667358 0x22 SLT KECCAK256 0xC 0xAA 0x2B 0xD4 0xDF 0x27 SDIV PUSH15 0x6DD753F1C7B4C25F09D5AFE69677DC BYTE 0x2F 0xC6 GT DUP11 LOG3 LOG1 SWAP6 ADD PUSH5 0x736F6C6343 STOP ADDMOD 0x22 STOP CALLER "
				},
				"gasEstimates": {
					"creation": {
						"codeDepositCost": "203200",
						"executionCost": "infinite",
						"totalCost": "infinite"
					},
					"external": {
						"f10(uint8[4])": "infinite",
						"f9()": "24484",
						"sarr(uint256)": "4378"
					},
					"internal": {
						"f11(uint8[4] storage pointer)": "infinite"
					}
				},
				"methodIdentifiers": {
					"f10(uint8[4])": "3bd59457",
					"f9()": "e7025593",
					"sarr(uint256)": "df059dcc"
				}
			},
			"storageLayout": {
				"storage": [
					{
						"astId": 11,
						"contract": "contracts/Functions.sol:Functions",
						"label": "sarr",
						"offset": 0,
						"slot": "0",
						"type": "t_array(t_uint8)4_storage"
					}
				],
				"types": {
					"t_array(t_uint8)4_storage": {
						"base": "t_uint8",
						"encoding": "inplace",
						"label": "uint8[4]",
						"numberOfBytes": "32"
					},
					"t_uint8": {
						"encoding": "inplace",
						"label": "uint8",
						"numberOfBytes": "1"
					}
				}
			},
			"userdoc": {
				"kind": "user",
				"methods": {},
				"version": 1
			}
		}
	}
}